S01600004272617A6F5F726F626F7469636F2E7372656350
S11300000C944B000C9468000C9468000C94F1015F
S11300100C940A020C9468000C9468000C94680018
S11300200C9468000C9468000C9468000C946800AC
S11300300C9468000C9468000C9468000C9468009C
S11300400C9468000C9468000C942B030C946800C6
S11300500C9468000C9453030C9468000C9468008E
S11300600C9468000C946800C200930099009F00EF
S1130070A500AB00B100B700430449044F04B30426
S1130080550460046B0476047C0487049204B3046E
S1130090B3049D04A80411241FBECFEFD8E0DEBF33
S11300A0CDBF11E0A0E0B1E0E0E9FCE002C00590C2
S11300B00D92A430B107D9F721E0A4E0B1E001C06A
S11300C01D92A431B207E1F70E9457010C94460631
S11300D00C9400000F9310927C00811106C0ACE7D1
S11300E0B0E08C918F7D8C9305C0ACE7B0E08C912F
S11300F080628C93613019F0653039F00BC0ACE745
S1130100B0E08C91806C8C9305C0ACE7B0E08C912E
S113011080648C9350E04830510578F5FA01EC5C2A
S1130120FF4F0C943106ECE7F0E08081816080831E
S113013029C0ECE7F0E080818260808323C0ECE793
S1130140F0E08081836080831DC0ECE7F0E0808173
S11301508460808317C0ECE7F0E080818560808351
S113016011C0ECE7F0E08081866080830BC0ECE78F
S1130170F0E080818760808305C0ECE7F0E0808157
S11301808660808310927A00211106C0EAE7F0E0CD
S11301908081877F808305C0EAE7F0E08081886002
S11301A080830031D9F038F4043061F0083081F0F4
S11301B0023061F530C00034E9F0003809F1003252
S11301C029F512C0EAE7F0E080818260808323C0D1
S11301D0EAE7F0E08081836080831DC0EAE7F0E015
S11301E080818460808317C0EAE7F0E080818560C5
S11301F0808311C0EAE7F0E08081866080830BC0D1
S1130200EAE7F0E080818760808305C0EAE7F0E0F8
S1130210808187608083EAE7F0E08081806C80835E
S11302200F9108950F931F93F89417B818B888B1D5
S11302308F6088B914B884B18E6084B915B885B15B
S1130240806185B91AB88AB18A678AB91BB8E8E6A9
S1130250F0E01082808183608083ECE6F0E010821D
S1130260ABE6B0E01C928C9180618C9380818F60AE
S113027080830FE31CE928E030E04EE060E082E098
S11302800E94030420E034E043E060E082E00E9446
S113029023054091020100E821E065E081E00E942D
S11302A06A000E94F40578941F910F9108950E94AA
S11302B012018FE99FE00197F1F700C000008091DF
S11302C013018130E9F018F08230B1F1F2CF8BB133
S11302D08F7C8BB980910101882359F38BB18064A1
S11302E08BB99FEF21EE84E0915020408040E1F7EC
S11302F000C000008BB18F7B8BB910920101D9CF64
S11303008BB18F7D8BB98BB180618BB980910001EA
S1130310882379F28BB180648BB99FEF21EE84E05E
S1130320915020408040E1F700C000008BB18F7BEA
S11303308BB910920001BDCF8BB18F7E8BB98BB17D
S113034080628BB9B6CFEF92FF920F931F93CF9336
S1130350DF937B018A01E901609107010E94E805AE
S113036060910601C7010E94E8056091B300C801CD
S11303700E94E8056091B400CE010E94E805DF9177
S1130380CF911F910F91FF90EF900895EF92FF92FC
S11303900F931F93CF93DF937B018A01E9010E949E
S11303A0DF050E94F2039093890080938800C701BF
S11303B00E94DF050E94F20390938B0080938A00D1
S11303C0C8010E94DF058093B300CE010E94DF05BF
S11303D08093B400DF91CF911F910F91FF90EF9024
S11303E008951F920F920FB60F9211248F931C99A8
S11303F005C0809113018F5F8093130180911301D5
S1130400833011F4109213018F910F900FBE0F904F
S11304101F9018951F920F920FB60F9211242F93CD
S11304203F934F935F936F937F938F939F93AF9378
S1130430BF93CF93EF93FF9380911301882321F00F
S1130440813009F460C0F5C0309920C086B18E7047
S11304508E30E1F481E0809301016091070180E036
S113046090E00E94E8056091060181E090E00E941E
S1130470E8056091B30082E090E00E94E805609195
S1130480B40083E090E00E94E805D3C0319912C023
S113049086B18D708D3071F482E08093010127E084
S11304A030E046E050E065E070E084E090E00E94D7
S11304B0A301BFC0329912C086B18B708B3071F426
S11304C083E0809301012BE030E04AE050E069E0F2
S11304D070E088E090E00E94A301ABC03399A9C00A
S11304E086B18770873009F0A4C084E0809301014D
S11304F02FE030E04EE050E06DE070E08CE090E002
S11305000E94A30196C0309932C086B18E708E309D
S113051071F581E08093000123E030E042E050E097
S113052061E070E080E090E00E94C60180E090E02D
S11305300E94DF050E94F203909389008093880053
S113054081E090E00E94DF050E94F20390938B000B
S113055080938A0082E090E00E94DF058093B300DC
S113056083E090E00E94DF058093B40062C031997B
S113057039C086B18D708D30A9F582E08093000179
S113058027E030E046E050E065E070E084E090E091
S11305900E94C60186E090E00E94DF05C82F87E034
S11305A090E00E94DF058C2B90E09093890080936B
S11305B0880088E090E00E94DF0580938A0089E04B
S11305C090E00E94DF0580938B008AE090E00E9417
S11305D0DF058093B3008BE090E00E94DF058093F9
S11305E0B40027C0329912C086B18B708B3071F47D
S11305F083E0809300012BE030E04AE050E069E0C2
S113060070E088E090E00E94C60113C0339911C0E5
S113061086B18770873069F484E0809300012FE00D
S113062030E04EE050E06DE070E08CE090E00E943D
S1130630C601FF91EF91CF91BF91AF919F918F919F
S11306407F916F915F914F913F912F910F900FBECA
S11306500F901F9018951F920F920FB60F921124AE
S11306608F939F93809113018130B1F4809108019D
S1130670882319F0813049F00FC08091090190E07E
S1130680909389008093880007C08091090190E0CD
S113069090938B0080938A009F918F910F900FBE4F
S11306A00F901F9018951F920F920FB60F9211245E
S11306B00F932F933F934F935F936F937F938F93F6
S11306C09F93AF93BF93EF93FF9380911301811195
S11306D06FC08091790080931201809112010E9471
S11306E0F2039093110180931001809112010E94F2
S11306F0F90390930F0180930E01809112010E94DF
S1130700FA0490E090930D0180930C018091120102
S11307100E94090590E090930B0180930A01809157
S113072002018530B1F018F4843031F034C08630E1
S1130730E9F0873031F12FC08091100190911101BF
S1130740909389008093880080911201809307011F
S113075022C080910E0190910F0190938B008093A1
S11307608A00809112018093060115C080910C01CA
S113077090910D018093B300809112018093050143
S11307800AC080910A0190910B018093B40080917A
S113079012018093040180910201873020F084E0EB
S11307A08093020105C0809102018F5F8093020152
S11307B04091020100E821E065E081E00E946A00C6
S11307C0FF91EF91BF91AF919F918F917F916F9125
S11307D05F914F913F912F910F910F900FBE0F900A
S11307E01F9018952FE0829FC00111248E509C4FBA
S11307F0089590E0880F991F880F991F880F991FFB
S11308008F5B9A4F08950F931F931092800010925C
S1130810810081110EC0611106C0A0E8B0E08C9186
S113082080628C9325C0A0E8B0E08C9180638C93A7
S11308301FC0813071F4611106C0A0E8B0E08C9152
S113084080688C9315C0A0E8B0E08C91806C8C9388
S11308500FC0823069F4611106C0A0E8B0E08C9149
S1130860806A8C9305C0A0E8B0E08C91806F8C9373
S113087050E0FA013197EF30F10508F074C0E45C00
S1130880FF4F0C943106E0E8F0E0808181608083C2
S113089074C0E0E8F0E08081826080836EC0E0E8AC
S11308A0F0E080818360808368C0E0E8F0E08081CC
S11308B081608083E1E8F0E08081886080835DC0AE
S11308C0E0E8F0E0808182608083E1E8F0E080810C
S11308D08860808352C0E0E8F0E080818360808398
S11308E0E1E8F0E080818860808347C0E1E8F0E0DF
S11308F080818061808341C0E1E8F0E08081806193
S11309008083E0E8F0E080818160808336C0E1E8A4
S1130910F0E0808180618083E0E8F0E080818260A3
S113092080832BC0E0E8F0E0808183608083E1E88D
S1130930F0E080818061808320C0E0E8F0E0808185
S113094082608083E1E8F0E080818861808315C063
S1130950E0E8F0E0808183608083E1E8F0E080817A
S1130960886180830AC0E0E8F0E08081826080834F
S1130970E1E8F0E080818861808320343105E1F092
S113098038F42130310561F02830310579F026C082
S1130990211581E03807B1F021153440C9F01EC09B
S11309A0E1E8F0E08081816080831DC0E1E8F0E04F
S11309B080818260808317C0E1E8F0E080818360F9
S11309C0808311C0E1E8F0E08081846080830BC003
S11309D0E1E8F0E080818560808305C0E1E8F0E033
S11309E08081887F808310938700009386001F9105
S11309F00F910895282F30E0A2E3B0E00E9437065B
S1130A002FEF30E040E050E00E940F068BE0820FB1
S1130A10089590E0A0E0B0E0880F991FAA1FBB1FC3
S1130A20880F991FAA1FBB1FBC01CD01660F771F3A
S1130A30881F991F2FEF30E040E050E00E940F061E
S1130A4086E0820F08951092B0001092B1008111D7
S1130A500EC0611106C0E0EBF0E08081806280830B
S1130A6025C0E0EBF0E08081806380831FC081308B
S1130A7071F4611106C0E0EBF0E08081806880834E
S1130A8015C0E0EBF0E08081806C80830FC0823081
S1130A9069F4611106C0E0EBF0E08081806A808334
S1130AA005C0E0EBF0E08081806F80834330B9F0D3
S1130AB028F4413041F0423061F02DC04530A9F0B6
S1130AC04730F1F028C0E0EBF0E080818160808362
S1130AD02CC0E0EBF0E080818260808326C0E0EBF4
S1130AE0F0E080818360808320C0E0EBF0E08081CF
S1130AF081608083E1EBF0E080818860808315C0B1
S1130B00E1EBF0E0808188608083E0EBF0E08081BD
S1130B10836080830AC0E1EBF0E08081877F80837B
S1130B20E0EBF0E080818C7F80832034310549F153
S1130B3050F428303105C9F020323105E1F021307C
S1130B403105B9F50CC0211581E0380731F12115C3
S1130B5084E0380741F12038310559F518C0E1EB3C
S1130B60F0E08081816080830895E1EBF0E0808192
S1130B70826080830895E1EBF0E08081836080836C
S1130B800895E1EBF0E08081846080830895E1EBD7
S1130B90F0E08081856080830895E1EBF0E080815E
S1130BA0866080830895E1EBF0E080818760808334
S1130BB00895E1EBF0E08081887F80830895F999BE
S1130BC0FECF92BD81BD8FB381608FBB80B5089588
S1130BD0F999FECF92BD81BD60BD8FB384608FBB98
S1130BE08FB382608FBB08958AB182608AB98AB15B
S1130BF08E7F8AB91092C000E1ECF0E0108280810F
S1130C0088698083E2ECF0E01082808186608083D2
S1130C1087E690E09093C5008093C4000895A1E214
S1130C201A2EAA1BBB1BFD010DC0AA1FBB1FEE1F62
S1130C30FF1FA217B307E407F50720F0A21BB30BAD
S1130C40E40BF50B661F771F881F991F1A9469F729
S1130C5060957095809590959B01AC01BD01CF0185
S1130C600895EE0FFF1F0590F491E02D0994A29FC3
S1130C70B001B39FC001A39F700D811D1124911D6C
S1130C80B29F700D811D1124911D0895F894FFCF1A
S1070C900101040056
S9030000FC
