:100000000C944B000C9468000C9468000C940D0246
:100010000C9426020C9468000C9468000C94680000
:100020000C9468000C9468000C9468000C946800B0
:100030000C9468000C9468000C9468000C946800A0
:100040000C9468000C9468000C9454030C946800A1
:100050000C9468000C947C030C9468000C94680069
:100060000C9468000C946800C200930099009F00F3
:10007000A500AB00B100B7005D0463046904CD04C2
:100080006F047A04850490049604A104AC04CD04A2
:10009000CD04B704C20411241FBECFEFD8E0DEBFE9
:1000A000CDBF11E0A0E0B1E0E8EFFCE002C00590B8
:1000B0000D92A430B107D9F721E0A4E0B1E001C06E
:1000C0001D92A031B207E1F70E9457010C947A0605
:1000D0000C9400000F9310927C00811106C0ACE7D5
:1000E000B0E08C918F7D8C9305C0ACE7B0E08C9133
:1000F00080628C93613019F0653039F00BC0ACE749
:10010000B0E08C91806C8C9305C0ACE7B0E08C9132
:1001100080648C9350E04830510578F5FA01EC5C2E
:10012000FF4F0C946506ECE7F0E0808181608083EE
:1001300029C0ECE7F0E080818260808323C0ECE797
:10014000F0E08081836080831DC0ECE7F0E0808177
:100150008460808317C0ECE7F0E080818560808355
:1001600011C0ECE7F0E08081866080830BC0ECE793
:10017000F0E080818760808305C0ECE7F0E080815B
:100180008660808310927A00211106C0EAE7F0E0D1
:100190008081877F808305C0EAE7F0E08081886006
:1001A00080830031D9F038F4043061F0083081F0F8
:1001B000023061F530C00034E9F0003809F1003256
:1001C00029F512C0EAE7F0E080818260808323C0D5
:1001D000EAE7F0E08081836080831DC0EAE7F0E019
:1001E00080818460808317C0EAE7F0E080818560C9
:1001F000808311C0EAE7F0E08081866080830BC0D5
:10020000EAE7F0E080818760808305C0EAE7F0E0FC
:10021000808187608083EAE7F0E08081806C808362
:100220000F9108950F931F93F89417B818B888B1D9
:100230008F6088B914B884B18E6084B915B885B15F
:10024000806185B91AB88AB18A678AB91BB8E8E6AD
:10025000F0E01082808183608083ECE6F0E0108221
:10026000ABE6B0E01C928C9180618C9380818F60B2
:1002700080830FE31CE928E030E04EE060E082E09C
:100280000E941D0420E034E043E060E082E00E9430
:100290004A054091020100E821E065E081E00E940A
:1002A0006A000E94280678941F910F9108950E9479
:1002B00012018FE99FE00197F1F700C000008091E3
:1002C0000F018130E9F018F08230B1F1F2CF8BB13B
:1002D0008F7C8BB980910101823058F38BB180649F
:1002E0008BB99FEF21EE84E0915020408040E1F7F0
:1002F00000C000008BB18F7B8BB910920101D9CF68
:100300008BB18F7D8BB98BB180618BB980910001EE
:10031000823078F28BB180648BB99FEF21EE84E05C
:10032000915020408040E1F700C000008BB18F7BEE
:100330008BB910920001BDCF8BB18F7E8BB98BB181
:1003400080628BB9B6CFAF92BF92CF92DF92EF921D
:10035000FF920F931F93CF93DF935B016A01E90133
:10036000609188000E941C0660918900C5010E946E
:100370001C0660918A00C6010E941C0660918B00D9
:10038000CE010E941C066091B300C8010E941C06A9
:100390006091B400C7010E941C06DF91CF911F91AC
:1003A0000F91FF90EF90DF90CF90BF90AF900895A6
:1003B000AF92BF92CF92DF92EF92FF920F931F9373
:1003C000CF93DF935B016A01E9010E9413068093DA
:1003D0008800C5010E94130680938900C6010E940F
:1003E000130680938A00CE010E94130680938B002F
:1003F000C8010E9413068093B300C7010E94130630
:100400008093B400DF91CF911F910F91FF90EF90F7
:10041000DF90CF90BF90AF9008951F920F920FB6CC
:100420000F9211248F931C9905C080910F018F5F4B
:1004300080930F0180910F01833011F410920F010E
:100440008F910F900FBE0F901F9018951F920F92D3
:100450000FB60F921124EF92FF920F931F932F93D9
:100460003F934F935F936F937F938F939F93AF933C
:10047000BF93EF93FF9380910F01882321F0813088
:1004800009F480C0FCC080910101811109C086B1CE
:100490008F708F3009F0F3C081E080930101EFC0CD
:1004A00080910101813009F0EAC0309919C086B10C
:1004B0008E708E30A9F482E0809301010F2EF5E05A
:1004C000EF2EF12CF02D04E010E023E030E042E0CC
:1004D00050E061E070E080E090E00E94A301CFC0B6
:1004E000319919C086B18D708D30A9F483E0809365
:1004F00001010F2EFBE0EF2EF12CF02D0AE010E0B1
:1005000029E030E048E050E067E070E086E090E00D
:100510000E94A301B4C0329919C086B18B708B3090
:10052000A9F484E0809301010F2EF1E1EF2EF12C6C
:10053000F02D00E110E02FE030E04EE050E06DE003
:1005400070E08CE090E00E94A30199C0339997C0BD
:1005500086B18770873009F092C085E080930101F1
:100560000F2EF7E1EF2EF12CF02D06E110E025E142
:1005700030E044E150E063E170E082E190E00E940D
:10058000A3017DC080910001811109C086B18F70E7
:100590008F3009F074C081E08093000170C08091B9
:1005A0000001813009F06BC0309919C086B18E709E
:1005B0008E30A9F482E0809300010F2EF5E0EF2E3B
:1005C000F12CF02D04E010E023E030E042E050E0B8
:1005D00061E070E080E090E00E94D80150C0319965
:1005E00019C086B18D708D30A9F483E0809300012D
:1005F0000F2EFBE0EF2EF12CF02D0AE010E029E0A9
:1006000030E048E050E067E070E086E090E00E9473
:10061000D80135C0329919C086B18B708B30A9F4DE
:1006200084E0809300010F2EF1E1EF2EF12CF02DEC
:1006300000E110E02FE030E04EE050E06DE070E0CF
:100640008CE090E00E94D8011AC0339918C086B19E
:1006500087708730A1F485E0809300010F2EF7E1C9
:10066000EF2EF12CF02D06E110E025E130E044E121
:1006700050E063E170E082E190E00E94D801FF91D8
:10068000EF91BF91AF919F918F917F916F915F910A
:100690004F913F912F911F910F91FF90EF900F90ED
:1006A0000FBE0F901F9018951F920F920FB60F92CA
:1006B00011248F939F9380910F018130B1F4809129
:1006C0000401882319F0813049F00FC080910501A1
:1006D00090E0909389008093880007C08091050185
:1006E00090E090938B0080938A009F918F910F9060
:1006F0000FBE0F901F9018951F920F920FB60F927A
:1007000011240F932F933F934F935F936F937F9396
:100710008F939F93AF93BF93EF93FF9380910F01BC
:1007200081115FC08091790080930E0180910E014C
:100730000E940B0490930D0180930C0180910E0197
:100740000E94120490930B0180930A0180910E0184
:100750000E94140590E09093090180930801809114
:100760000E010E94230590E09093070180930601FB
:1007700080910201853091F018F4843031F024C06A
:100780008630A9F08730D1F01FC080910C01909184
:100790000D01909389008093880016C080910A0112
:1007A00090910B0190938B0080938A000DC08091F3
:1007B0000801909109018093B30006C08091060161
:1007C000909107018093B40080910201873020F05E
:1007D00084E08093020105C0809102018F5F8093C5
:1007E00002014091020100E821E065E081E00E9401
:1007F0006A00FF91EF91BF91AF919F918F917F918F
:100800006F915F914F913F912F910F910F900FBE7C
:100810000F901F9018952FE0829FC00111248E50D9
:100820009C4F089590E09C01220F331F220F331F2D
:10083000820F931F8F5B9A4F08950F931F9310920F
:1008400080001092810081110EC0611106C0A0E8E5
:10085000B0E08C9180628C9325C0A0E8B0E08C91D0
:1008600080638C931FC0813071F4611106C0A0E8D1
:10087000B0E08C9180688C9315C0A0E8B0E08C91BA
:10088000806C8C930FC0823069F4611106C0A0E8BF
:10089000B0E08C91806A8C9305C0A0E8B0E08C91A8
:1008A000806F8C9350E0FA013197EF30F10508F03A
:1008B00074C0E45CFF4F0C946506E0E8F0E08081D2
:1008C0008160808374C0E0E8F0E080818260808392
:1008D0006EC0E0E8F0E080818360808368C0E0E87B
:1008E000F0E0808181608083E1E8F0E080818860D1
:1008F00080835DC0E0E8F0E0808182608083E1E891
:10090000F0E080818860808352C0E0E8F0E0808180
:1009100083608083E1E8F0E080818860808347C065
:10092000E1E8F0E080818061808341C0E1E8F0E0AF
:10093000808180618083E0E8F0E080818160808355
:1009400036C0E1E8F0E0808180618083E0E8F0E09B
:100950008081826080832BC0E0E8F0E0808183604A
:100960008083E1E8F0E080818061808320C0E0E85E
:10097000F0E0808182608083E1E8F0E0808188613E
:10098000808315C0E0E8F0E0808183608083E1E847
:10099000F0E08081886180830AC0E0E8F0E0808137
:1009A00082608083E1E8F0E0808188618083203488
:1009B0003105E1F038F42130310561F0283031059E
:1009C00079F026C0211581E03807B1F021153440B7
:1009D000C9F01EC0E1E8F0E08081816080831DC025
:1009E000E1E8F0E080818260808317C0E1E8F0E018
:1009F00080818360808311C0E1E8F0E080818460C1
:100A000080830BC0E1E8F0E080818560808305C0D1
:100A1000E1E8F0E08081887F808310938700009375
:100A200086001F910F910895282F30E0A2E3B0E0D7
:100A30000E946B062FEF30E040E050E00E9443063A
:100A40008BE0820F08950F931F93482F50E060E0D2
:100A500070E0DB01CA01880F991FAA1FBB1F880F16
:100A6000991FAA1FBB1F880F991FAA1FBB1F8C01AC
:100A70009D01040F151F261F371FC901B8012FEF55
:100A800030E040E050E00E94430686E0820F1F9174
:100A90000F9108951092B0001092B10081110EC014
:100AA000611106C0E0EBF0E080818062808325C0A8
:100AB000E0EBF0E08081806380831FC0813071F4BF
:100AC000611106C0E0EBF0E080818068808315C092
:100AD000E0EBF0E08081806C80830FC0823069F4AD
:100AE000611106C0E0EBF0E08081806A808305C080
:100AF000E0EBF0E08081806F80834330C9F028F420
:100B0000413051F0423071F03AC0463011F1473077
:100B100059F14530A1F512C0E0EBF0E08081816031
:100B2000808337C0E0EBF0E080818260808331C059
:100B3000E0EBF0E08081836080832BC0E0EBF0E0AD
:100B4000808181608083E1EBF0E080818860808338
:100B500020C0E0EBF0E0808183608083E1EBF0E097
:100B600080818860808315C0E1EBF0E0808188603F
:100B70008083E0EBF0E08081816080830AC0E1EB5C
:100B8000F0E08081877F8083E0EBF0E080818C7FE4
:100B900080832034310549F150F428303105C9F003
:100BA00020323105E1F021303105B9F50CC02115B5
:100BB00081E0380731F1211584E0380741F1203810
:100BC000310559F518C0E1EBF0E080818160808348
:100BD0000895E1EBF0E08081826080830895E1EB8D
:100BE000F0E08081836080830895E1EBF0E0808114
:100BF000846080830895E1EBF0E0808185608083EC
:100C00000895E1EBF0E08081866080830895E1EB58
:100C1000F0E08081876080830895E1EBF0E08081DF
:100C2000887F80830895F999FECF92BD81BD8FB3EF
:100C300081608FBB80B50895F999FECF92BD81BDCB
:100C400060BD8FB384608FBB8FB382608FBB08950C
:100C50008AB182608AB98AB18E7F8AB91092C00047
:100C6000E1ECF0E01082808188698083E2ECF0E0C2
:100C7000108280818660808387E690E09093C50033
:100C80008093C4000895A1E21A2EAA1BBB1BFD018C
:100C90000DC0AA1FBB1FEE1FFF1FA217B307E4075B
:100CA000F50720F0A21BB30BE40BF50B661F771FB3
:100CB000881F991F1A9469F7609570958095909593
:100CC0009B01AC01BD01CF010895EE0FFF1F059000
:100CD000F491E02D0994A29FB001B39FC001A39F9E
:100CE000700D811D1124911DB29F700D811D112465
:080CF000911D0895F894FFCF57
:040CF80001010400F2
:00000001FF
