:020000020000FC
:0200000024C01A
:02001000F9C035
:02003400D0C03A
:10004000D9C00FEF0DBF08E00EBFF89400E8009391
:10005000610004E00093610000EE0093B20003E051
:100060000093B10003E005BD01E000936E0004E6DB
:1000700006BD05E00093810001E000936F000CEFE6
:10008000009385000EE20093840000E307B90FE0BF
:1000900008B90FE204B900E105B90FEF0AB900E0B1
:1000A0000BB902E0009368000FE000936C0000E0E1
:1000B0000093C1001FE020E030E060E040E070E02D
:1000C00081E090E2AFE10093000100930101009311
:1000D000020100930301009307010093050101E071
:1000E000009306010093040150910001F6E0ECE357
:1000F00034913BB978941EC000E466FF602700E8A5
:1001000067FD60272C9A459A65FD0E94620160FD9B
:100110000E949A010FC000E466FF602700E867FDB7
:100120006027459A449865FD0E94620160FD0E9427
:100130009A0100C0403059F04130D1F0423049F1CD
:100140004330C1F1443039F34530B1F2F3CF00E42C
:1001500066FF602700E867FD6027449A459A65FDC1
:100160000E94620160FD0E949A010E943101E2CF6B
:1001700000E466FD602700E867FF6027449A459A1F
:1001800065FD0E94620160FD0E949A010E9431019A
:10019000D1CF4498459800E466FF602700E867FDEA
:1001A000602761FD0E94E50162FD0E9474020E94C9
:1001B0003101C0CF449A459800E466FD602700E80D
:1001C00067FF602761FD0E94E50162FD0E947402E5
:1001D0000E943101AFCF0F930FB70F930CEF009335
:1001E00085000EE20093840000E260270F910FBFAC
:1001F0000F9118950F930FB70F9326B10F910FBF63
:100200000F9118950F930FB70F9326B1211779F01F
:10021000122F02E020FF602704E021FF602708E0A2
:1002200022FF602723FF4395463041F740E00F91BE
:100230000FBF0F91189507B300FFFDCFB89A00EEDE
:100240000093B2000895F6E0ECE3E50FF11D349160
:100250003BB90895F6E0E6E4E50FF11D34913BB9B2
:10026000089566FD5091000167FD509106010E94BE
:1002700023012B9A0E941B012B9866FD50910101CE
:1002800067FD509107010E942A012A9A0E941B01D2
:100290002A9866FD5091020167FD509104010E9469
:1002A0002301299A0E941B01299866FD50910301A0
:1002B00067FD509105010E942301289A0E941B01AD
:1002C0002898089500E260275091000153955093BB
:1002D00000015A3071F550E0509300015091010136
:1002E000539550930101563021F550E05093010190
:1002F00050910201539550930201509103015230E5
:1003000069F0509102015A30A1F450E0509302017B
:10031000509103015395509303010BC0509102017A
:10032000543039F450E0509302015093030101E03E
:100330006027089501E0602700910601083011F45C
:100340009FE1A0E200FD792F00FF7A2F023009F42F
:100350007DE18395871781F0009104010395009357
:1003600004010A3089F500E00093040100910501C1
:1003700003950093050128C088E08093040182E082
:10038000809305018CE100910701013071F4009127
:1003900006010395009306010330B1F400E00093D9
:1003A00006010093070190E2AFE100910601039579
:1003B000009306010A3041F400E000930601009129
:1003C0000701039500930701089502E0602763FD8C
:1003D00000E063FF01E0003039F466FD0E94FB019C
:1003E00067FD0E942B02089566FD0E94160267FDBC
:1003F0000E94520208950AE050910301523009F41C
:1004000004E050910201539550930201501769F492
:1004100050E0509302015091030153955093030112
:10042000533019F450E050930301089550910001A6
:100430005395509300015A3069F450E050930001F5
:1004400050910101539550930101563019F450E039
:1004500050930101089500910601083011F49FE1C5
:10046000A0E200FD792F00FF7A2F023009F47DE130
:100470008395871781F0509104015395509304019F
:100480005A3079F450E0509304015091050153958E
:100490005093050106C080E08093050181E08093C0
:1004A0000401089550910701503081F450910601E4
:1004B0005395509306015A3069F650E05093060167
:1004C00050910701539550930701C4CF50910601F5
:1004D000539550930601533031F451E05093060187
:1004E00050E050930701089504E0602763FD00E0A9
:1004F00063FF01E0003039F466FD0E948A0267FD67
:100500000E94E502089566FD0E94AA0267FD0E940E
:10051000C102089550910301503059F450910201E5
:10052000503039F453E05093020152E050930301EC
:10053000089550910201503021F05A9550930201D4
:10054000089559E050930201509103015A95509338
:100550000301089550910001503021F05A955093B5
:100560000001089559E0509300015091010150306D
:1005700021F05A9550930101089555E050930101DF
:10058000089550910701503079F45091060151308F
:1005900021F05A9550930601089552E050930601B8
:1005A00051E050930701089550910601503021F019
:1005B0005A9550930601089559E0509306015091C1
:1005C00007015A95509307010895009106010830DC
:1005D00011F49FE1A0E200FD792F00FF7A2F023095
:1005E00009F47DE18130C1F475FD8FE175FF8EE185
:1005F0007D3141F48CE158E05093040152E0509376
:100600000501089553E05093050175FF50E075FD15
:1006100051E05093040108958A955091040150309F
:1006200021F05A9550930401089559E05093040124
:10063000509105015A95509305010895F381EAE917
:0C06400099797BC1FBF9F381E6E5957523
:00000001FF
