:020000020000FC
:0200000024C01A
:0200100000C12D
:02003400D0C03A
:10004000D9C00FEF0DBF08E00EBFF89400E8009391
:10005000610004E00093610000EE0093B20003E051
:100060000093B10003E005BD01E000936E000BE0DA
:1000700006BD05E00093810001E000936F000CEFE6
:10008000009385000EE20093840000E307B90FE0BF
:1000900008B90FE204B900E105B90FEF0AB900E0B1
:1000A0000BB902E0009368000FE000936C0000E0E1
:1000B0000093C10020E010E030E060E040E070E03C
:1000C00081E090E2AFE10093000100930101009311
:1000D000020100930301009307010093050101E071
:1000E000009306010093040100910001F6E0EAE4A8
:1000F00034913BB978941EC000E466FF602700E8A5
:1001000067FD60272C9A459A65FD0E94690160FD94
:100110000E94A1010FC000E466FF602700E867FDB0
:100120006027459A449865FD0E94690160FD0E9420
:10013000A10100C0403059F04130D1F0423049F1C6
:100140004330C1F1443039F34530B1F2F3CF00E42C
:1001500066FF602700E867FD6027449A459A65FDC1
:100160000E94690160FD0E94A1010E943801E2CF56
:1001700000E466FD602700E867FF6027449A459A1F
:1001800065FD0E94690160FD0E94A1010E94380185
:10019000D1CF4498459800E466FF602700E867FDEA
:1001A000602761FD0E94EC0162FD0E947B020E94BB
:1001B0003801C0CF449A459800E466FD602700E806
:1001C00067FF602761FD0E94EC0162FD0E947B02D7
:1001D0000E943801AFCF0F930FB70F930CEF00932E
:1001E00085000EE20093840000E260270F910FBFAC
:1001F0000F9118950F930FB70F930BE006BD239542
:10020000223019F420E008E040270F910FBF0F9132
:1002100018950F930FB70F9316B102E010FF6027E8
:1002200004E011FF602708E012FF602713FF4395E9
:10023000463059F740E00F910FBF0F91189507B363
:1002400000FFFDCFB89A00EE0093B2000895F6E0EB
:10025000EAE4E00FF11D34913BB90895F6E0E4E5DE
:10026000E00FF11D349108E043FD30273BB90895BC
:1002700066FD0091000167FD009106010E942701C3
:100280002B9A0E941F012B9866FD0091010167FDCA
:10029000009107010E942E012A9A0E941F012A98AC
:1002A00066FD0091020167FD009104010E94270193
:1002B000299A0E941F01299866FD0091030167FD9C
:1002C000009105010E942701289A0E941F01289889
:1002D000089500E26027009100010395009300015A
:1002E0000A3071F500E000930001009101010395CF
:1002F00000930101063021F500E000930101009117
:10030000020103950093020100910301023069F09C
:10031000009102010A30A1F400E000930201009173
:1003200003010395009303010BC000910201043007
:1003300039F400E0009302010093030101E060271B
:10034000089501E0602700910601083011F49FE153
:10035000A0E200FD792F00FF7A2F023009F47DE141
:100360008395871781F000910401039500930401A0
:100370000A3089F500E0009304010091050103951E
:100380000093050128C088E08093040182E08093F7
:1003900005018CE100910701013071F40091060123
:1003A0000395009306010330B1F400E000930601C9
:1003B0000093070190E2AFE10091060103950093DD
:1003C00006010A3041F400E00093060100910701A4
:1003D000039500930701089502E0602763FD00E0A4
:1003E00063FF01E0003039F466FD0E94020267FD00
:1003F0000E943202089566FD0E941D0267FD0E9460
:10040000590208957AE000910301023009F474E082
:1004100000910201039500930201071769F400E0BF
:10042000009302010091030103950093030103303F
:1004300019F400E000930301089500910001039571
:10044000009300010A3069F400E00093000100917C
:100450000101039500930101063019F400E00093B7
:100460000101089500910601083011F49FE1A0E216
:1004700000FD792F00FF7A2F023009F47DE183958A
:10048000871781F0009104010395009304010A305D
:1004900079F400E0009304010091050103950093B5
:1004A000050106C080E08093050181E0809304018E
:1004B000089500910701003081F400910601039531
:1004C000009306010A3069F600E0009306010091EE
:1004D0000701039500930701C4CF0091060103951E
:1004E00000930601033031F401E00093060100E0BF
:1004F00000930701089504E0602763FD00E063FFB7
:1005000001E0003039F466FD0E94910267FD0E940F
:10051000EC02089566FD0E94B10267FD0E94C802C8
:10052000089500910301003059F400910201003058
:1005300039F403E00093020102E0009303010895FF
:1005400000910201003021F00A9500930201089504
:1005500009E000930201009103010A950093030151
:10056000089500910001003021F00A9500930001E8
:10057000089509E00093000100910101003021F08D
:100580000A9500930101089505E000930101089583
:1005900000910701003079F400910601013021F04B
:1005A0000A9500930601089502E00093060101E018
:1005B00000930701089500910601003021F00A958B
:1005C00000930601089509E00093060100910701D8
:1005D0000A9500930701089500910601083011F46F
:1005E0009FE1A0E200FD792F00FF7A2F023009F48D
:1005F0007DE18130C1F475FD8FE175FF8EE17D31C4
:1006000041F48CE108E00093040102E0009305014D
:10061000089503E00093050175FF00E075FD01E01A
:100620000093040108958A9500910401003021F09F
:100630000A9500930401089509E0009304010091D4
:1006400005010A95009305010895F381EAE9997976
:0A0650007BC1FBF9F381E6E5957527
:00000001FF
