:020000020000FC
:0200000024C01A
:02001000E3C04B
:020034007CC08E
:10004000B8C00FEF0DBF08E00EBFF89400E80093B2
:10005000610004E00093610000EE0093B20003E051
:100060000093B10003E005BD05E00093810001E0CD
:1000700000936F000FEF009385000EEC0093840057
:1000800000E307B90FE008B90FE204B900E105B9D0
:100090000FEF0AB900E00BB902E0009368000FE02F
:1000A00000936C0000E00093C1001FE120E030E00D
:1000B00060E040E00093010100930201009303011E
:1000C00000930401009300010093050100930601D1
:1000D00050910101F2E0E4E634913BB9789400C01C
:1000E000403059F0413071F04230A9F04330B1F066
:1000F0004430B9F04530C1F0F3CF449A459A0E949C
:100100001101EECF449A459A00910601073001F49F
:1001100000910501E5CF44984598E2CF449A45986F
:10012000DFCF459A4498DCCF2C9A459AD9CF5F937C
:100130000F930FB70F930FEF009385000EEC009312
:100140008400509101015395509301015A3061F59B
:1001500050E05093010150910201539550930201D8
:10016000563011F550E05093020150910301539520
:100170005093030150910401523069F050910301F2
:100180005A3091F450E0509303015091040153957B
:100190005093040109C050910301543029F450E0F8
:1001A00050930301509304010F910FBF0F915F9182
:1001B00018950F930FB70F9300E000936E0026B1D0
:1001C000211731F0122F23FF4395463009F440E008
:1001D0000F910FBF0F9118950F930FB70F9326B183
:1001E000211729F001E000936E0004E606BD0F918F
:1001F0000FBF0F91189507B300FFFDCFB89A00EE1F
:100200000093B2000895F2E0E4E6E50FF11D3491A9
:100210003BB90895F2E0EEE6E50FF11D34913BB9EC
:100220000895509101010E9403012B9A0E94FB0046
:100230002B98509102010E940A012A9A0E94FB0009
:100240002A98509103010E940301299A0E94FB0001
:100250002998509104010E940301289A0E94FB00F2
:1002600028980895F381EAE999797BC1FBF9F38134
:04027000E6E59575B5
:00000001FF
