:020000020000FC
:0200000024C01A
:0200100010C11D
:02003400A7C063
:10004000E1C00FEF0DBF08E00EBFF89400E8009389
:10005000610008E00093610001EE0093B20003E04C
:100060000093B10003E005BD05E00093810000E2CC
:1000700000936F0000E00093850000E0009384008F
:1000800000E307B90FE008B90FE204B900E105B9D0
:100090000FEF0AB900E00BB902E0009368000FE12E
:1000A00000936C0001E00093680000E100936B0096
:1000B00000E00093C10000E1302E00E3202E1FE19C
:1000C00050E03FE020E070E040E000E000930101FC
:1000D00000930201009303010093040100930001C7
:1000E00060910101F2E0E4E824912BB9789440306A
:1000F00059F0413061F1423069F1433089F14430C7
:10010000A9F14530C9F1F3CF449A459A60910101B4
:100110000E9434012B9A0E942C012B9860910201BD
:100120000E943B012A9A0E942C012A9860910301A7
:100130000E943401299A0E942C012998609104019F
:100140000E943401289A0E942C012898D0CF449A0A
:10015000459ACDCF2BB932E035B944984598C7CFF1
:100160002BB933E035B94498459AC1CF2BB934E067
:1001700035B94598449ABBCF2BB935E035B9449A87
:10018000459AB5CF0F930FB70F9300E0009385000A
:1001900000E0009384006091010163956093010188
:1001A0006A3061F560E0609301016091020163953E
:1001B00060930201663011F560E060930201609186
:1001C000030163956093030160910401623069F05B
:1001D000609103016A3091F460E0609303016091E3
:1001E000040163956093040109C0609103016430C8
:1001F00029F460E060930301609304010F910FBF45
:100200000F9118950F930FB70F9300E000936E00B6
:1002100056B1532503B104FF5325511731F0152F63
:1002200054FF4395463009F440E00F910FBF0F9102
:1002300018950F930FB70F9356B1532503B104FFD1
:100240005325511729F001E000936E0004E606BD26
:100250000F910FBF0F91189507B300FFFDCFB89A0C
:1002600001EE0093B2000895F2E0E4E8E60FF11D1C
:1002700024912BB90895F2E0EEE8E60FF11D2491E8
:100280002BB90895F381EAE999797BC1FBF9F3125F
:04029000E6E5957595
:00000001FF
