:020000020000FC
:0200000008C036
:100010005EC0F89400E80093610004E00093610082
:1000200000E207B90FE108B90FE304B900E005B930
:100030000FEF0AB900E00BB902E0009368000FE18E
:1000400000936C0000E00093C10010E030E020E07D
:1000500040E0F0E0E0EE24912BB97894403059F084
:10006000413089F04230B1F04330D9F0443009F1E9
:10007000453031F1F3CF24912BB90FE005B92C981D
:100080002B98459AEBCF24912BB901E005B92C9A16
:10009000459AE4CF24912BB902E005B92C9A4598F2
:1000A000DDCF24912BB903E005B937E02C984598B2
:1000B000D5CF24912BB904E005B92C9A459ACECF1F
:1000C00024912BB905E005B92C9A459AC7CF16B1F2
:1000D00014FF4395463019F43196208140E018957D
:0A00E000F381EAE999797BC9FBF985
:00000001FF
