:020000020000FC
:0200000024C01A
:0200100004C129
:02003400D4C036
:10004000DDC00FEF0DBF08E00EBFF89400E800938D
:10005000610004E00093610000EE0093B20003E051
:100060000093B10003E005BD01E000936E000BE0DA
:1000700006BD05E00093810001E000936F000CEFE6
:10008000009385000EE20093840000E307B90FE0BF
:1000900008B90FE204B900E105B90FEF0AB900E0B1
:1000A0000BB902E0009368000FE000936C0000E0E1
:1000B0000093C10020E010E030E050E040E070E04C
:1000C00081E090E2AFE10093000100930101009311
:1000D000020100930301009307010093050101E071
:1000E000009306010093040100910001F6E0E4E7AB
:1000F00034913BB978941EC000E456FF502700E8C5
:1001000057FD50272C9A459A55FD0E947E0150FDBF
:100110000E94B6010FC000E456FF502700E857FDCB
:100120005027459A449855FD0E947E0150FD0E943B
:10013000B60100C0403059F04130D1F0423049F1B1
:100140004330E1F1443039F34530B1F2F3CF00E40C
:1001500056FF502700E857FD5027449A459A55FD11
:100160000E947E0150FD0E94B6010E944201E2CF32
:1001700000E456FD502700E857FF5027449A459A5F
:1001800055FD0E947E0150FD0E94B6010E94420171
:10019000D1CF4498459800E456FF502700E857FD1A
:1001A00050270E943C0151FD0E94010252FD0E9415
:1001B00090020E9442010E943C01BCCF449A4598A3
:1001C00000E456FD502700E857FF502751FD0E94DC
:1001D000010252FD0E9490020E944201ABCF0F9398
:1001E0000FB70F930CEF009385000EE2009384008D
:1001F00000E250270F910FBF0F9118950F930FB783
:100200000F930BE006BD2395223019F420E001E0A6
:1002100060270F910FBF0F9118950F930FB70F9392
:1002200016B102E010FF502704E011FF502708E04C
:1002300012FF502713FF4395463059F740E00F91C6
:100240000FBF0F91189507B300FFFDCFB89A00EECE
:100250000093B2000895F6E0E4E7E00FF11D349159
:100260000895F6E0EEE7E00FF11D3491B8E00B2FB2
:1002700060FD30273BB9089553FD0CE053FF0AE0C1
:100280006027089556FD0091000157FD0091060179
:100290000E942B013BB92B9A0E9423012B9856FDFB
:1002A0000091010157FD009107010E9431012A9A36
:1002B0000E9423012A9856FD0091020157FD0091EA
:1002C00004010E942B01B4E063FF02C061FDB49100
:1002D0000B2F60FD30273BB9299A0E9423012998F2
:1002E00056FD0091030157FD009105010E942B016D
:1002F0003BB9289A0E9423012898089500E25027CC
:10030000009100010395009300010A3071F500E0AF
:100310000093000100910101039500930101063053
:1003200021F500E000930101009102010395009383
:10033000020100910301023069F0009102010A30CC
:10034000A1F400E0009302010091030103950093E2
:1003500003010BC000910201043039F400E0009366
:1003600002010093030101E05027089501E05027A6
:1003700000910601083011F49FE1A0E200FD792F01
:1003800000FF7A2F023009F47DE18395871781F011
:10039000009104010395009304010A3089F500E0FF
:1003A000009304010091050103950093050128C005
:1003B00088E08093040182E0809305018CE1009144
:1003C0000701013071F400910601039500930601C5
:1003D0000330B1F400E0009306010093070190E2BE
:1003E000AFE1009106010395009306010A3041F444
:1003F00000E00093060100910701039500930701B7
:10040000089502E0502753FD00E053FF01E0003063
:1004100039F456FD0E94170257FD0E9447020895C5
:1004200056FD0E94320257FD0E946E0208957AE046
:1004300000910301023009F474E000910201039578
:1004400000930201071769F400E000930201009194
:100450000301039500930301033019F400E00093B6
:1004600003010895009100010395009300010A30F3
:1004700069F400E0009300010091010103950093ED
:100480000101063019F400E0009301010895009184
:100490000601083011F49FE1A0E200FD792F00FF72
:1004A0007A2F023009F47DE18395871781F000915E
:1004B00004010395009304010A3079F400E00093ED
:1004C00004010091050103950093050106C080E039
:1004D0008093050181E08093040108950091070154
:1004E000003081F4009106010395009306010A3063
:1004F00069F600E00093060100910701039500935F
:100500000701C4CF00910601039500930601033053
:1005100031F401E00093060100E000930701089523
:1005200004E0502753FD00E053FF01E0003039F4B0
:1005300056FD0E94A60257FD0E940103089556FD34
:100540000E94C60257FD0E94DD020895009103013A
:10055000003059F400910201003039F403E00093B7
:10056000020102E0009303010895009102010030AE
:1005700021F00A9500930201089509E00093020119
:10058000009103010A950093030108950091000171
:10059000003021F00A9500930001089509E00093CE
:1005A000000100910101003021F00A950093010142
:1005B000089505E0009301010895009107010030BE
:1005C00079F400910601013021F00A9500930601AB
:1005D000089502E00093060101E0009307010895E9
:1005E00000910601003021F00A950093060108955C
:1005F00009E000930601009107010A9500930701A5
:10060000089500910601083011F49FE1A0E200FD79
:10061000792F00FF7A2F023009F47DE18130C1F497
:1006200075FD8FE175FF8EE17D3141F48CE108E0CD
:100630000093040102E000930501089503E0009394
:10064000050175FF00E075FD01E0009304010895C8
:100650008A9500910401003021F00A95009304016D
:10066000089509E000930401009105010A950093A3
:1006700005010895F381EAE999797BC1FBF9F381DA
:04068000E6E59575A1
:00000001FF
