:020000020000FC
:0200000024C01A
:02001000D6C058
:0200340099C071
:10004000A2C00FEF0DBF08E00EBFF89400E80093C8
:10005000610004E00093610000EE0093B20003E051
:100060000093B10003E005BD05E00093810001E0CD
:1000700000936F000FEF009385000AEF0093840058
:1000800000E307B90FE008B90FE204B900E105B9D0
:100090000FEF0AB900E00BB902E0009368000FE02F
:1000A00000936C0000E00093C1001FE120E030E00D
:1000B00060E040E070E08CE190E2AFE1009300018D
:1000C00000930101009302010093030100930701D3
:1000D00001E00093060108E00093040102E00093B0
:1000E000050150910001F3E0E2E934913BB97894C5
:1000F00000C0403059F04130A1F04230E9F04330C7
:10010000F1F04430F9F0453031F1F3CF449A459A9B
:1001100065FD0E94460160FD0E947E010E9425014E
:10012000E8CF449A459A65FD0E94460160FD0E9411
:100130007E010E940401DDCF44984598DACF449AAD
:100140004598D7CF459A449865FD0E94460160FDC9
:100150000E947E01CECF2C9A459A65FD0E944601F1
:1001600060FD0E947E01C5CF0F930FB70F930FEF75
:10017000009385000AEF0093840000E260270F914E
:100180000FBF0F9118950F930FB70F9300E00093D7
:100190006E0026B1211779F0122F02E020FF6027B0
:1001A00004E021FF602708E022FF602723FF43953A
:1001B000463009F440E00F910FBF0F9118950F934F
:1001C0000FB70F9326B1211729F001E000936E00BD
:1001D00004E606BD0F910FBF0F91189507B300FFFE
:1001E000FDCFB89A00EE0093B2000895F3E0E2E983
:1001F000E50FF11D34913BB90895F3E0ECE9E50F0B
:10020000F11D34913BB90895509106010E94F6000A
:100210002B9A0E94EE002B98509107010E94FD003E
:100220002A9A0E94EE002A98509104010E94F6003A
:10023000299A0E94EE002998509105010E94F6002B
:10024000289A0E94EE0028980895509100010E947B
:10025000F6002B9A0E94EE002B98509101010E940B
:10026000FD002A9A0E94EE002A98509102010E94F5
:10027000F600299A0E94EE002998509103010E94ED
:10028000F600289A0E94EE002898089500E2602760
:10029000509100015395509300015A3071F550E090
:1002A0005093000150910101539550930101563034
:1002B00021F550E050930101509102015395509364
:1002C000020150910301523069F0509102015A30FD
:1002D000A1F450E0509302015091030153955093C3
:1002E00003010BC050910201543039F450E0509397
:1002F00002015093030101E06027089501E06027A7
:1003000000910601083011F49FE1A0E200FD792F71
:1003100000FF7A2F023009F47DE18395871781F081
:10032000009104010395009304010A3089F500E06F
:10033000009304010091050103950093050128C075
:1003400088E08093040182E0809305018CE10091B4
:100350000701013071F40091060103950093060135
:100360000330B1F400E0009306010093070190E22E
:10037000AFE1009106010395009306010A3041F4B4
:1003800000E0009306010091070103950093070127
:100390000895F381EAE999797BC1FBF9F381E6E5F8
:0203A000957551
:00000001FF
